S0100000546573745F4170702E73726563F4
S1131000007000201114000079140000791400000D
S11310107914000079140000791400000000000025
S1131020000000000000000000000000791400002F
S11310307914000000000000791400007914000005
S11310407914000079140000791400007914000068
S11310507914000079140000791400007914000058
S11310607914000079140000791400007914000048
S11310707914000079140000791400007914000038
S11313F0791400007914000079140000FFFFFFFF46
S1131400FFFFFFFFFFFFFFFFFFFFFFFFFE7FFFFF69
S113141072B64FF000014FF000024FF000034FF09E
S113142000044FF000054FF000064FF00007B846E7
S1131430B946BA46BB46BC460A490B4A521A013A57
S113144005DD0020042308601944043AFBDA074848
S11314508546074880470748804762B600F00EF883
S1131460FEE700000080FF1F0070002000700020D5
S113147071150000A1150000FFF7FEBF00F0CCF9C4
S113148000F0DCF909480A4A0021121A00F038F980
S113149000F0F8F900F072F900F0CEF905490020E7
S11314A000F020F800F010F9FEE700BF0000002073
S11314B0100000200000002080B400AF074B084A51
S11314C05A60064B4FF6FF729A60044B4FF4045275
S11314D01A6000BFBD4680BC704700BF00200540B5
S11314E020C528D980B582B000AF00237B60FFF708
S11314F0E3FF00F00FF87B6801337B607B68044AEC
S11315009342F8DD00237B6000F024F8F3E700BF8A
S113151020A1070080B400AF0B4A0B4BD3F8303145
S113152043F08043C2F83031084A084B5B6943F406
S113153000435361064A064BDB6B43F48073D36369
S113154000BFBD4680BC704700500640C0F00F404D
S113155000C0044080B400AF044A044BDB6843F489
S11315600043D36000BFBD4680BC7047C0F00F404D
S113157080B400AF084B094A5A60074B5B68064BBE
S113158042F220121A60044B4FF6FF729A6000BFB9
S1131590BD4680BC704700BF0020054020C528D947
S11315A080B48FB000AF394B3B63394B3B62394B4E
S11315B07B61394BFB62394BFB61394B3B61394BE6
S11315C0BB62394BFB60394B7B62394BBB61394B96
S11315D0BB6009E03B6A1A783B6B1A703B6B0133C2
S11315E03B633B6A01333B627A693B6A9A42F1D1BD
S11315F009E0FB691A78FB6A1A70FB6A0133FB6223
S1131600FB690133FB613A69FB699A42F1D105E058
S1131610BB6A00221A70BB6A0133BB62FA68BB6AF8
S11316209A42F5D109E0BB691A787B6A1A70BB69E2
S11316300133BB617B6A01337B62BA68BB699A423E
S1131640F1D10023FB711C4A1C4B9A4216D0002393
S11316507B630AE0194A7B6B52F8232016497B6BA3
S113166041F823207B6B01337B63154B9B087A6B1A
S11316709A42EFD3134B104A1A6002E0114B0F4AFF
S11316801A6000BF3C37BD4680BC70470084FF1F12
S1131690A8180000A81800000084FF1FA818000064
S11316A0A818000000000020100000200000002006
S11316B0A8180000A81800000080FF1F00100000F8
S11316C00004000008ED00E00B4C08B5054600F0EE
S11316D097F800F079F8236813B198470023236042
S11316E0064C236813B19847002323602846BDE8BD
S11316F0084000F083B800BF080000200400002068
S113170010B5044600F002F8204610BD1F2A10B59B
S1131710CBB22CD9444214F0030405D0121B044468
S113172000F8011BA042FBD12BB1190441EA03616B
S1131730194341EA032351090ED000EB4111036020
S113174043608360C36003614361836120308142ED
S113175040F8043CF3D10846C2F3820129B100EBFE
S1131760810140F8043B8842FBD102F0030222B11C
S1131770024400F8013B8242FBD110BD38B50C4C49
S11317800C4DAC4208D10C4C0C4DAC4208D10C4C65
S11317900C4DAC4208D138BD54F8043B9847F0E7EF
S11317A054F8043B9847F0E754F8043B9847F0E7B3
S11317B0A8180000A8180000A8180000A818000025
S11317C0A8180000A818000038B5084C084DAC4211
S11317D004D1084C084DAC4204D138BD54F8043B44
S11317E09847F4E754F8043D9847F4E7A818000034
S11317F0A8180000A8180000A8180000FEE70000C0
S1131800044B10B51C6804B910BD6368A068984700
S11318102468F8E70C000020064B1846002807D07F
S1131820854681B04FF000006FEA0000009001B0DF
S1131830F746704700700020F7467047FFF7FCBF7B
S113184088421DD0E2B141EA000313F0030F07D12F
S1131850032A05D951F8043B40F8043B043AF1E764
S1131860DB0707D4012A05D931F9023B20F8023BF2
S1131870023AE7E711F8013B00F8013B013AE1E7DE
S11318807047000010B5074C2CB1216821B963687A
S113189013B9A36803B910BDA2686068FFF7D0FF4D
S10B18A00C34F2E70000000023
S9031411D7
