S01300004578616D706C655F6170702E73726563A5
S113100000F00120111400005114000051140000DC
S1131010511400005114000051140000000000009D
S11310200000000000000000000000005114000057
S1131030511400000000000051140000511400007D
S11310405114000051140000511400005114000008
S113105051140000511400005114000051140000F8
S113106051140000511400005114000051140000E8
S113107051140000511400005114000051140000D8
S11313F0511400005114000051140000FFFFFFFFBE
S1131400FFFFFFFFFFFFFFFFFFFFFFFFFE7FFFFF69
S113141072B60B490A4A0A4B094C094D084E084F4B
S1131420B846B946BA46BB46BC4606488546064851
S113143080470648804762B600F022F8FEE70000C5
S11314400000000000F001201D1500004D150000F3
S1131450FFF7FEBF80B400AF074B084A5A60064B43
S11314604FF6FF729A60044B4FF404521A60BD4663
S11314705DF8047B704700BF0020054020C528D9D3
S113148080B582B000AF00237B60FFF7E3FF1E4B03
S11314904FF08042C3F82C211B4B4FF08042C3F81D
S11314A034211A4A194B5B6923F480535361184A57
S11314B0174B1B6B43F010031363154A144B1B6B40
S11314C043F480731363134A124B5B6943F40003C0
S11314D05361114B4FF48072DA650C4B1B6903F4B2
S11314E08053002B06D00B4A0A4B5B6843F400037D
S11314F0536005E0074A074B9B6843F4000393607D
S11315007B6801337B60E8E70050064080F00F40C1
S113151000B0044000F10F4000D0044080B400AF9C
S1131520084B094A5A60074B5B68064B42F220128B
S11315301A60044B4FF6FF729A60BD465DF8047B57
S1131540704700BF0020054020C528D980B48BB067
S113155000AF304B3B62304B7B61304BFB60304B18
S1131560FB61304B3B61304BBB60304BBB61304B5C
S11315707B60304A304B9A4218D000237B620AE0E9
S11315802D4A7B6A52F823202A497B6A41F823209A
S11315907B6A01337B62294B9B087A6A9A42EFD3B8
S11315A04FF0E023234AC3F8082D04E04FF0E02372
S11315B0214AC3F8082D09E07B691A783B6A1A703E
S11315C03B6A01333B627B6901337B61FA687B6967
S11315D09A42F1D109E03B691A78FB691A70FB69F8
S11315E00133FB613B6901333B61BA683B699A4251
S11315F0F1D105E0BB6900221A70BB690133BB61FC
S11316007A68BB699A42F5D12C37BD465DF8047BF4
S1131610704700BF0004FE1F401600004016000083
S11316200004FE1F401600004016000000000020C9
S1131630000000200000FE1F001000000004000055
S9031411D7
